:020000040800F2
:100000007004002045010008270800086D0700085B
:1000100023080008C10500085D1100080000000069
:10002000000000000000000000000000450A000879
:10003000C5050008000000000D090008310B00088C
:100040005F0100085F0100085F0100085F01000810
:100050005F0100085F0100085F0100085F01000800
:100060005F0100085F0100085F0100085F010008F0
:100070005F0100085F0100085F0100085F010008E0
:100080005F0100085F0100085F0100085F010008D0
:100090005F0100085F0100085F0100085F010008C0
:1000A0005F0100085F0100085F0100085F010008B0
:1000B0005F0100085F0100085F0100085F010008A0
:1000C0005F0100085F0100085F0100085F01000890
:1000D0005F0100085F0100085F0100085F01000880
:1000E0005F0100085F0100085F0100085F01000870
:1000F0005F0100085F0100085F0100085F01000860
:100100005F0100085F0100085F0100085F0100084F
:100110005F0100085F0100085F0100085F0100083F
:100120005F0100085F0100085F0100085F0100082F
:10013000DFF80CD000F0F0F900480047E5120008A5
:10014000700400200648804706480047FEE7FEE7A7
:10015000FEE7FEE7FEE7FEE7FEE7FEE7FEE7FEE777
:10016000350B0008310100082DE9FE4F804681EA79
:100170000300C00F0C46009021F0004123F0004521
:10018000B8EB0200A94105D24046214690461C46E4
:100190000B46024623F00040104347D0270DC7F31B
:1001A0000A00C3F30A510290401A019040286BDA0A
:1001B000C3F3130040F4801B0098924620B1002343
:1001C000D2EB030A63EB0B0B01985946C0F14002D6
:1001D000504600F012F906460D4650465946019A1F
:1001E00000F02AF910EB08006141002487EA11525F
:1001F00084EAE7731A4340D0009A62B3019A012A55
:100200004FEA075215DC001B61EB02014FF0004280
:1002100002EA0752CDE90042001C41F58011324646
:100220002B4600F02AF903B0BDE8F08F4046214686
:10023000F9E7001B61EB0201001C41F58013001877
:100240005B412018A2F5001747EB030140EAD57087
:10025000B6196D4111E06D084FEA360645EAC075E2
:100260004FEA0752001B61EB0201001C41F58011AF
:1002700049084FEA30000019514132462B4603B07D
:10028000BDE8F04F00F0EAB80098012240000023DA
:10029000D0EB020263EBE073009821464FEAE07472
:1002A000B8EB000061EB0401E9E783F000435BE792
:1002B00081F0004158E72DE9FE4F81EA030404F084
:1002C000004421F0004100944FF0000B23F0004364
:1002D00050EA01045ED052EA03045BD0C3F30A542F
:1002E000C1F30A552C44A4F2F3340194A0FB025448
:1002F000C1F3130141F48011C3F3130343F48013DA
:1003000001FB024400FB034E840A970A44EA81542D
:1003100047EA8357A4FB076802958D0A05FB07850A
:100320004FEA932C04FB0C542705029D4FEA065814
:1003300047EA1637B5EB08056EEB070C870E920EF1
:1003400047EA811742EA8312A7FB0201B6EB0B01D1
:1003500064EB00042B0D43EA0C335E1844EB1C5095
:10036000DA465146E7FB0201C5F313044FEA0B33AB
:1003700043EA14534FEA0432019C43EA0603A4F112
:100380000C040294009CCDE900B400F076F803B0B0
:10039000BDE8F08F00200146F9E70EB5C10F80EAF5
:1003A000E0700844CA07002140F233438DE80E0094
:1003B0000A460B4600F061F803B000BD70B5C1F30A
:1003C0000A5201F000450024C1F3130140F2FF334B
:1003D00041F480119A4201DA002070BD40F23343AB
:1003E0009A42A2F2334203DC524200F015F800E0D8
:1003F00090402C43F1D0404270BD202A04DB203ACB
:1004000000FA02F1002070479140C2F1200320FA67
:1004100003F3194390407047202A04DB203A21FA65
:1004200002F00021704721FA02F3D040C2F120020D
:100430009140084319467047202A06DBCB17203A23
:1004400041FA02F043EAE07306E041FA02F3D040D9
:10045000C2F12002914008431946704710B5141E9E
:1004600073F1000408DA401C41F1000192185B416D
:100470001A4301D120F0010010BD2DE9F04D924644
:100480009B4611B1B1FA81F202E0B0FA80F220325B
:100490009046FFF7B2FF04460F4640EA0A0041EAE1
:1004A0000B0153465A46084313D0114653EA010044
:1004B00019D0C8F140025046FFF7AEFF05460E4680
:1004C000504659464246FFF798FF084305D00120A1
:1004D00004E020463946BDE8F08D0020054346EA99
:1004E000E0762C4337430A986305E40AA0EB080042
:1004F0000022FD0A44EA47540A3002D50020014692
:10050000E9E7010510196941DDE90845001969416C
:10051000BDE8F04DA2E70000064C074D06E0E0689C
:1005200040F0010394E8070098471034AC42F6D33A
:10053000FFF702FE081300082813000810B5012178
:10054000042000F005FA0121082000F001FA012141
:10055000102000F0FDF90121202000F0F9F901211F
:10056000084600F0F5F90121022000F0E1F901212F
:10057000042000F0DDF90121082000F0D9F9012163
:10058000480300F0E5F90121880300F0E1F90121B9
:10059000480400F0CDF90121880400F0C9F90121D7
:1005A000C80400F0C5F90121080500F0C1F90121D6
:1005B000084600F0ADF90121022000F0A9F910BDB4
:1005C00000BFFEE770472DE9F041024600250026F6
:1005D000002000230024002791F803C00CF00F0531
:1005E00091F803C00CF0100CBCF1000F03D091F88F
:1005F00002C04CEA050591F800C0BCF1000F31D0F3
:10060000146800202BE04FF0010C0CFA00F3B1F855
:1006100000C00CEA03069E4220D183004FF00F0C6D
:100620000CFA03F7BC4305FA03FC4CEA040491F806
:1006300003C0BCF1280F06D14FF0010C0CFA00FCEE
:10064000C2F814C00AE091F803C0BCF1480F05D10C
:100650004FF0010C0CFA00FCC2F810C0401C082836
:10066000D1D31460B1F800C0BCF1FF0F34DD546881
:1006700000202EE000F1080C4FF0010808FA0CF3FE
:10068000B1F800C00CEA03069E4221D183004FF06E
:100690000F0C0CFA03F7BC4305FA03FC4CEA040404
:1006A00091F803C0BCF1280F05D100F1080C08FA3D
:1006B0000CF8C2F8148091F803C0BCF1480F07D1C0
:1006C00000F1080C4FF0010808FA0CF8C2F810808D
:1006D000401C0828CED35460BDE8F081F0B50A462E
:1006E000002300240021002500F00046B6F1004F51
:1006F00002D11D4EF16901E01B4E7168C0F3034544
:1007000083B200F44016B6F5401F08D121F07061A5
:10071000154E766826F07066134F7E6012E000F486
:100720008016B6F5801F06D1032606FA05F4A1430C
:1007300041F0706106E0460D360103FA06F6B1435A
:1007400041F0706122B1460D360103FA06F63143DD
:1007500000F00046B6F1004F02D1034EF16101E016
:10076000014E7160F0BD00000000014000BFFEE7D7
:100770002DE9F04F89B004468946E068A0EB0900F6
:1007800020600223D4E9001203FB1211A26888182A
:10079000FFF703FE0546D4E90C733A46FFF78BFDDD
:1007A000CDE904012068FFF7F8FD0746D4E90A53B4
:1007B0002A46FFF780FD82468B46D4E90012881A4C
:1007C000FFF7EBFD0746D4E908532A46FFF773FD10
:1007D00052465B46CDE90001FFF7C6FCCDE90201B8
:1007E000DDE90423FFF7C0FCCDE90601DDE90601E0
:1007F000FFF7E4FD2169084420616068A06020687B
:100800006060D4E90401884202DD6069206105E08E
:10081000A1692069884201DAA069206109B0BDE8B8
:10082000F08F00BFFEE7704770B5002100230F2254
:10083000C47804B3154C246804F4E064C4F5E0649F
:10084000210AC1F10403CA40447804FA03F1847810
:100850001440214309010E4C0678A155047804F098
:100860001F050124AC4005786D11AD0005F1E025B0
:10087000C5F8004109E0047804F01F050124AC40EC
:10088000044D0678761145F8264070BD0CED00E069
:1008900000E400E080E100E002490143024A116007
:1008A000704700000000FA050CED00E008B51820C4
:1008B0008DF8030003208DF80200CF20ADF8000072
:1008C00069460A48FFF77FFE40F2C330ADF80000EA
:1008D00069460748FFF777FE4FF47070ADF80000E7
:1008E00069460448FFF76FFE08BD0000000801409C
:1008F000000C01400010014010B5FFF7D7FF00F0D9
:1009000049F900F067F900F0D3F910BD7047000015
:1009100029B1064A52690243044B5A6104E0034A72
:1009200052698243014B5A61704700000010024037
:1009300029B1064AD2690243044BDA6104E0034A52
:10094000D2698243014BDA61704700000010024017
:1009500029B1064A92690243044B9A6104E0034AB2
:1009600092698243014B9A61704700000010024077
:1009700030B500210022002400232D4D6D6805F0C4
:100980000C0121B1042905D0082923D105E0294D06
:10099000056022E0274D05601FE0254D6D6805F4D8
:1009A0007012234D6D6805F48034022505EB9242E8
:1009B0001CB9214D554305600BE01D4D6D6805F4D4
:1009C00000351DB11C4D5543056002E0194D5543DE
:1009D000056002E0174D056000BF00BF144D6D6853
:1009E00005F0F0010909154D6B5C0568DD404560B7
:1009F0000F4D6D6805F4E061090A104D6B5C4568A8
:100A0000DD4085600A4D6D6805F46051C90A0B4DE3
:100A10006B5C4568DD40C560054D6D6805F440417F
:100A2000890B074D6B5CC568B5FBF3F5056130BDFF
:100A30000010024000127A0000093D000000002072
:100A400010000020704710B500F002F810BD000043
:100A50000CB50020019000903348006840F48030CD
:100A60003149086000BF3048006800F40030009051
:100A70000198401C0190009818B90198B0F5A06F3A
:100A8000F1D12948006800F4003010B10120009035
:100A900001E0002000900098012843D1234800681D
:100AA00040F01000214908600846006820F003006B
:100AB00008600846006840F0020008601A48406874
:100AC000194948600846406848600846406840F454
:100AD000806048600846406820F47C104860084602
:100AE000406840F4E81048600846006840F08070B4
:100AF000086000BF0C48006800F000700028F9D0C2
:100B00000948406820F003000749486008464068EB
:100B100040F00200486000BF0348406800F00C004D
:100B20000828F9D10CBD000000100240002002404E
:100B30007047000010B51348006840F001001149EB
:100B4000086008464068104908400E494860084659
:100B500000680E4908400B4908600846006820F408
:100B6000802008600846406820F4FE0048604FF48A
:100B70001F008860FFF767FF4FF0006004490860BE
:100B800010BD0000001002400000FFF8FFFFF6FE5D
:100B900008ED00E03EB50020ADF80600ADF802001B
:100BA00044F61F60ADF804004720ADF800000020B7
:100BB0008DF80800002400BF07E0054951F8240023
:100BC000694600F0E7F9601CC4B2042CF5DB3EBDB9
:100BD000140000201FB50020ADF80C006020ADF817
:100BE00000000020ADF80E000820ADF80A0000203B
:100BF000ADF80800ADF804000120ADF802000020B7
:100C0000ADF80600002400BF31E01A4951F8240075
:100C1000694600F063F8174951F82400694600F06E
:100C2000B3F8144951F82400694600F00DF9114950
:100C300051F82400694600F061F90E4951F824008A
:100C4000082100F097F80B4951F82400082100F022
:100C5000EDF8084951F82400082100F045F905494C
:100C600051F82400082100F087F9601CC4B2042C5C
:100C7000CBDB1FBD1400002021B1028842F001022D
:100C8000028004E002884FF6FE731A40028070472B
:100C900031B1B0F8442042F40042A0F8442005E00D
:100CA000B0F84420C2F30E02A0F8442070470000C0
:100CB00010B501210748FFF7EBFF002407E00649C4
:100CC00051F824000121FFF7D7FF601CC4B2042CA7
:100CD000F5DB10BD003401401400002070B5002485
:100CE00000220023058C4FF6FE7635400584028CE9
:100CF0008388048B4FF68F752C40B51E2C400D88D1
:100D00002C43751E2A400D892A434D882A43144DD1
:100D1000A8420BD0134DA84208D0134DA84205D0CD
:100D2000124DA84202D0124DA84213D14FF6F775CA
:100D30002A404D892A434FF6FB752A408D882A4365
:100D40004FF6FF652B404FF6FF552B408D892B4307
:100D5000CD892B4383800483CD888586028470BD32
:100D6000002C01400034014000400140004401409B
:100D7000004801400A460021018B4FF6F7731940E5
:100D8000114301837047000070B500240022002346
:100D9000058C4FF6EF7635400584028C8388048BF2
:100DA00048F6FF752C404FF6FF452C400D884FF656
:100DB000FF7606EA05252C434FF6DF752A400D899C
:100DC00006EA05152A434D8806EA05152A43154DFE
:100DD000A84202D0144DA8421DD14FF67F752A407B
:100DE0004D894FF6FF7606EA05152A434FF6BF7583
:100DF0002A408D8806EA05152A434FF6FF352B4019
:100E00004FF2FF752B408D8906EA85052B43CD896E
:100E100006EA85052B4383800483CD8805870284F9
:100E200070BD0000002C0140003401400A46002142
:100E3000018B4FF2FF7319404FF6FF7303EA022351
:100E4000194301837047000070B50024002200237D
:100E5000058C4FF6FF6635400584028C8388848BB1
:100E60004FF68F752C404FF6FC752C400D882C43A7
:100E70004FF6FF552A400D894FF6FF7606EA052505
:100E80002A434D8806EA05252A43154DA84202D07B
:100E9000144DA8421DD14FF2FF752A404D894FF6DF
:100EA000FF7606EA05252A434FF6FF352A408D884E
:100EB00006EA05252A434EF6FF752B404DF6FF75D1
:100EC0002B408D8906EA05152B43CD8906EA0515C9
:100ED0002B4383808483CD888587028470BD000086
:100EE000002C0140003401400A460021818B4FF65E
:100EF000F7731940114381837047000070B50022D9
:100F000000230024058C4EF6FF7635400584038CC3
:100F10008488828B48F6FF752A404FF6FF452A40A9
:100F20000D884FF6FF7606EA05252A434DF6FF7534
:100F30002B400D8906EA05352B434D8806EA053519
:100F40002B430B4DA84202D00A4DA84208D14BF6C4
:100F5000FF752C408D894FF6FF7606EA85152C43E8
:100F600084808283CD88A0F84050038470BD000047
:100F7000002C0140003401400A460021818B4FF2D1
:100F8000FF7319404FF6FF7303EA0223194381836D
:100F900070470000002202881D4B98420ED01D4B66
:100FA00098420BD0B0F1804F08D01B4B984205D02F
:100FB0001A4B984202D01A4B984204D14FF68F73C5
:100FC0001A404B881A43174B984207D0164B984249
:100FD00004D04FF6FF431A40CB881A4302808B8817
:100FE00083850B8803850A4B98420BD0094B9842A6
:100FF00008D00E4B984205D00D4B984202D00D4BB5
:10100000984201D10B7A0386012383827047000046
:10101000002C014000340140000400400008004062
:10102000000C00400010004000140040004001404F
:101030000044014000480140F0B50346002400266A
:101040000025002040F66A17B94200D100BF1846BB
:10105000C1F3421401F01F06012707FA06F5012C1F
:1010600001D10C3004E0022C01D1103000E014302A
:101070001AB107682F43076002E00768AF430760B3
:10108000F0BD00002DE9F04786B005460E4600246D
:10109000A24600BFA1460027B08900B100BF2F467D
:1010A0002C8A4CF6FF700440F08804432C82AC89F3
:1010B0004EF6F3100440B088318908437189084323
:1010C0000443AC81AC8A4FF6FF400440B08904432E
:1010D000AC8201A8FFF74CFC1F48874202D1DDF823
:1010E00010A001E0DDF80CA0A88900F4004040B198
:1010F0000AEBCA0000EB0A1031684900B0FBF1F8B6
:1011000007E00AEBCA0000EB0A1031688900B0FB67
:10111000F1F86420B8FBF0F004012009642101FB20
:101120001089A88900F4004040B1322000EBC900CA
:10113000B0FBF1F000F00700044308E0322000EBC0
:1011400009106421B0FBF1F000F00F0004432C8182
:1011500006B0BDE8F08700000038014000BFFEE7A0
:101160001FB54FF4E13000900020ADF80C000C20CA
:10117000ADF80A000020ADF80800ADF80600ADF8A3
:101180000400002407E0054951F824006946FFF7F0
:1011900079FF601CC4B2052CF5DB1FBD24000020C4
:1011A00008B501210820FFF799FA18208DF80300EF
:1011B00003208DF802004FF40070ADF8000069467E
:1011C0001B48FFF700FA2020ADF8000069461948D7
:1011D000FFF7F9F94FF48060ADF800006946164852
:1011E000FFF7F1F94FF4A050ADF80000694613483D
:1011F000FFF7E9F904208DF803000002ADF80000C4
:1012000069460B48FFF7DFF94420ADF80000694656
:101210000848FFF7D8F94FF40060ADF800006946C0
:101220000548FFF7D0F969460448FFF7CCF908BD37
:101230000008014000140140000C01400010014072
:1012400010B5FFF7ADFFFFF78BFF00F001F810BD01
:1012500038B501208DF803000E208DF80100002024
:101260008DF8020025208DF800006846FFF7DCFAB3
:1012700026208DF800006846FFF7D6FA27208DF863
:1012800000006846FFF7D0FA34208DF80000684669
:10129000FFF7CAFA35208DF800006846FFF7C4FA58
:1012A000002409E0064951F82400012240F2266199
:1012B000FFF7C2FE601CC4B2052CF3DB38BD000092
:1012C0002400002002E008C8121F08C1002AFAD139
:1012D00070477047002001E001C1121F002AFBD1B6
:1012E000704700004FF44070FFF7D6FAFFF726F979
:1012F000FFF702FBFFF7A4FF01210248FFF738FACE
:1013000000BFFEE73800002028130008000000207E
:1013100038000000C41200086013000838000020E4
:1013200038040000D4120008000000000102030489
:10133000010203040607080902040608000400402D
:1013400000080040000C004000340140003801401B
:101350000044004000480040004C00400050004065
:0400000508000131BD
:00000001FF
