:020000040800F2
:100000007807002045010008910400080904000851
:100010008D0400088D0100086B0A00080000000034
:100020000000000000000000000000005106000871
:100030005F02000800000000190500083D070008E5
:100040005F0100085F0100085F0100085F01000810
:100050005F0100085F0100085F0100085F01000800
:100060005F0100085F0100085F0100085F010008F0
:100070005F0100085F010008910100085F010008AE
:100080005F0100085F0100085F0100085F010008D0
:100090005F0100085F0100085F0100085F010008C0
:1000A0005F0100085F0100085F0100085F010008B0
:1000B0005F0100085F0100085F0100085F010008A0
:1000C0005F0100085F0100085F0100085F01000890
:1000D0005F010008010800083108000861080008F5
:1000E0005F0100085F0100085F0100085F01000870
:1000F0005F0100085F0100085F0100085F01000860
:100100005F0100085F0100085F0100085F0100084F
:10011000A1070008D10700085F0100085F0100087F
:100120005F0100085F0100085F0100085F0100082F
:10013000DFF80CD000F018F800480047E10D000887
:10014000780700200648804706480047FEE7FEE79C
:10015000FEE7FEE7FEE7FEE7FEE7FEE7FEE7FEE777
:100160004107000831010008064C074D06E0E06831
:1001700040F0010394E8070098471034AC42F6D3EE
:10018000FFF7DAFF0C0E00082C0E000800BFFEE798
:1001900010B54FF4005000F025F8012805D100F00B
:1001A00005FE4FF4005000F00FF810BD00F0805134
:1001B00011B10349086001E002494860704700003E
:1001C000040402400000024000F0805111B10349D4
:1001D000086001E0024948607047000004040240E2
:1001E0000000024001460020002201F0805313B1BC
:1001F000054B1A6801E0054B1A6802EA01030BB1CE
:10020000012000E00020704700040240000002408E
:100210001AB103680B43036002E003688B43036079
:10022000704710B50022026847F6F0739A430C6AD3
:100230008B6823430C6923434C6923438C69234314
:10024000CC6923434C6A23438C6A23431A430260DC
:10025000CB6843600B6883604B68C36010BD704718
:100260002DE9F0410246002500260020002300244D
:10027000002791F803C00CF00F0591F803C00CF0B3
:10028000100CBCF1000F03D091F802C04CEA050538
:1002900091F800C0BCF1000F31D0146800202BE0B1
:1002A0004FF0010C0CFA00F3B1F800C00CEA0306A1
:1002B0009E4220D183004FF00F0C0CFA03F7BC4391
:1002C00005FA03FC4CEA040491F803C0BCF1280FC2
:1002D00006D14FF0010C0CFA00FCC2F814C00AE081
:1002E00091F803C0BCF1480F05D14FF0010C0CFA96
:1002F00000FCC2F810C0401C0828D1D31460B1F82B
:1003000000C0BCF1FF0F34DD546800202EE000F186
:10031000080C4FF0010808FA0CF3B1F800C00CEA21
:1003200003069E4221D183004FF00F0C0CFA03F715
:10033000BC4305FA03FC4CEA040491F803C0BCF189
:10034000280F05D100F1080C08FA0CF8C2F8148047
:1003500091F803C0BCF1480F07D100F1080C4FF031
:10036000010808FA0CF8C2F81080401C0828CED307
:100370005460BDE8F0810000F0B50A460023002477
:100380000021002500F00046B6F1004F02D11D4EBD
:10039000F16901E01B4E7168C0F3034583B200F4BC
:1003A0004016B6F5401F08D121F07061154E7668F1
:1003B00026F07066134F7E6012E000F48016B6F5EA
:1003C000801F06D1032606FA05F4A14341F07061AF
:1003D00006E0460D360103FA06F6B14341F07061BE
:1003E00022B1460D360103FA06F6314300F000460D
:1003F000B6F1004F02D1034EF16101E0014E716090
:10040000F0BD00000000014000BFFEE759B10C4AFA
:1004100052F82020D2680B4B1B5C1A43084B53F850
:100420002030DA600AE0064A52F82020D268054BF4
:100430001B5C9A43024B53F82030DA60704700008F
:10044000E8000020E400002008B50121082000F0A9
:1004500085F80121402000F081F810208DF803007C
:1004600003208DF80200ADF8000069460548FFF74B
:10047000F7FE3020ADF8000069460348FFF7F0FEB4
:1004800008BD000000180140000C014000BFFEE75D
:100490007047000070B5002100230F22C47804B318
:1004A000154C246804F4E064C4F5E064210AC1F149
:1004B0000403CA40447804FA03F1847814402143C9
:1004C00009010E4C0678A155047804F01F0501249B
:1004D000AC4005786D11AD0005F1E025C5F800418F
:1004E00009E0047804F01F050124AC40044D0678AF
:1004F000761145F8264070BD0CED00E000E400E008
:1005000080E100E002490143024A116070470000A7
:100510000000FA050CED00E07047000029B1064A22
:1005200052690243044B5A6104E0034A5269824310
:10053000014B5A61704700000010024029B1064A81
:10054000D2690243044BDA6104E0034AD269824370
:10055000014BDA61704700000010024029B1064AE1
:1005600092690243044B9A6104E0034A9269824310
:10057000014B9A61704700000010024030B5002125
:100580000022002400232D4D6D6805F00C0121B1DF
:10059000042905D0082923D105E0294D056022E072
:1005A000274D05601FE0254D6D6805F47012234D41
:1005B0006D6805F48034022505EB92421CB9214D8B
:1005C000554305600BE01D4D6D6805F400351DB108
:1005D0001C4D5543056002E0194D5543056002E08E
:1005E000174D056000BF00BF144D6D6805F0F001A8
:1005F0000909154D6B5C0568DD4045600F4D6D6860
:1006000005F4E061090A104D6B5C4568DD408560CA
:100610000A4D6D6805F46051C90A0B4D6B5C456865
:10062000DD40C560054D6D6805F44041890B074DFF
:100630006B5CC568B5FBF3F5056130BD0010024089
:1006400000127A0000093D00000000201000002088
:10065000704710B500F002F810BD00000CB5002086
:10066000019000903348006840F4803031490860C0
:1006700000BF3048006800F4003000900198401C32
:100680000190009818B90198B0F5A06FF1D12948F0
:10069000006800F4003010B10120009001E000205B
:1006A00000900098012843D12348006840F01000D2
:1006B000214908600846006820F0030008600846E9
:1006C000006840F0020008601A4840681949486014
:1006D0000846406848600846406840F480604860CA
:1006E0000846406820F47C1048600846406840F4A2
:1006F000E81048600846006840F08070086000BF5D
:100700000C48006800F000700028F9D009484068E3
:1007100020F00300074948600846406840F00200A6
:10072000486000BF0348406800F00C000828F9D179
:100730000CBD000000100240002002407047000085
:1007400010B51348006840F00100114908600846E0
:100750004068104908400E494860084600680E4944
:1007600008400B4908600846006820F480200860B3
:100770000846406820F4FE0048604FF41F0088607F
:10078000FFF767FF4FF000600449086010BD0000EC
:10079000001002400000FFF8FFFFF6FE08ED00E049
:1007A00010B540F22551094800F09FF801280CD1FE
:1007B000064800F055F9C4B22146042000F094FA2E
:1007C00040F22551014800F06CF810BD004C00408B
:1007D00010B540F22551094800F087F801280CD1E6
:1007E000064800F03DF9C4B22146052000F07CFA2D
:1007F00040F22551014800F054F810BD005000406F
:1008000010B540F22551094800F06FF801280CD1CD
:10081000064800F025F9C4B22146012000F064FA30
:1008200040F22551014800F03CF810BD003801406D
:1008300010B540F22551094800F057F801280CD1B5
:10084000064800F00DF9C4B22146022000F04CFA2F
:1008500040F22551014800F024F810BD004400404A
:1008600010B540F22551094800F03FF801280CD19D
:10087000064800F0F5F8C4B22146032000F034FA2F
:1008800040F22551014800F00CF810BD004800402E
:1008900001F40072B2F5007F00D100BFCA430280AC
:1008A000704710B50022002340F66A14A14200D11F
:1008B00000BF0A1201249440A3B2DC43048010BD9F
:1008C00021B1828942F40052828104E082894DF68E
:1008D000FF731A40828170471AB1838A0B43838267
:1008E00002E0838A8B438382704770B502460024FE
:1008F00000230025002040F66A16B14200D100BF57
:10090000C1F3421501F01F03012606FA03F3012D7E
:1009100002D19689334006E0022D02D1168A334077
:1009200001E0968A33400C12012606FA04F4168878
:10093000344013B10CB1012000E0002070BDF0B5CF
:100940000346002400260025002040F66A17B9421D
:1009500000D100BF1846C1F3421401F01F06012761
:1009600007FA06F5012C01D10C3004E0022C01D16C
:10097000103000E014301AB107682F43076002E01E
:100980000768AF430760F0BD2DE9F04786B0054624
:100990000E460024A24600BFA1460027B08900B140
:1009A00000BF2F462C8A4CF6FF700440F0880443A9
:1009B0002C82AC894EF6F3100440B088318908438C
:1009C000718908430443AC81AC8A4FF6FF40044070
:1009D000B0890443AC8201A8FFF7D0FD1F488742CD
:1009E00002D1DDF810A001E0DDF80CA0A88900F428
:1009F000004040B10AEBCA0000EB0A103168490020
:100A0000B0FBF1F807E00AEBCA0000EB0A1031680E
:100A10008900B0FBF1F86420B8FBF0F00401200974
:100A2000642101FB1089A88900F4004040B1322004
:100A300000EBC900B0FBF1F000F00700044308E050
:100A4000322000EB09106421B0FBF1F000F00F0040
:100A500004432C8106B0BDE8F08700000038014057
:100A600001468888C0F30800704700BFFEE7000019
:100A70001FB501218803FFF771FD01214804FFF72D
:100A80005DFD0121C804FFF759FD01210805FFF7AD
:100A900065FD4FF4E13000900020ADF80C000C2013
:100AA000ADF80A000020ADF80800ADF80600ADF87A
:100AB000040000240DE0084951F824006946FFF7BE
:100AC00063FF054951F824002021FFF7E1FE601C77
:100AD000C4B2052CEFDB1FBDBC00002000B58DB0FB
:100AE00001210846FFF71AFD01210220FFF716FD3C
:100AF000002005901020049000200C900990802088
:100B0000079000200A90089006904FF480500B90B8
:100B1000154802901548039002A91548FFF781FB7C
:100B2000012202211248FFF773FB0E208DF804000A
:100B300001208DF807000A208DF8050000208DF8AF
:100B4000060001A8FFF7A6FC4FF40050FFF72EFBAC
:100B5000012280210448001FFFF7BEFE0020034948
:100B6000491E08700DB000BD043801403902002054
:100B70004400024010B5002407E0054951F8240064
:100B80000121FFF79DFE601CC4B2052CF5DB10BDF2
:100B9000BC00002008B501210846FFF7DFFC012159
:100BA0000820FFF7E9FB01210420FFF7D7FC012112
:100BB0000820FFF7D3FC01211020FFF7CFFC012113
:100BC0002020FFF7CBFC18208DF8030003208DF8C0
:100BD00002004FF40070ADF8000069461B48FFF7B3
:100BE0003FFB2020ADF8000069461948FFF738FBAD
:100BF0004FF48060ADF8000069461648FFF730FBFF
:100C00004FF4A050ADF8000069461348FFF728FBE9
:100C100004208DF803000002ADF8000069460B487F
:100C2000FFF71EFB4420ADF8000069460848FFF7B7
:100C300017FB4FF40060ADF8000069460548FFF768
:100C40000FFB69460448FFF70BFB08BD0008014095
:100C500000140140000C01400010014010B5FFF7E6
:100C600099FFFFF705FF00F005F8FFF737FFFFF7E3
:100C700081FF10BD38B501208DF803000C208DF8E0
:100C8000010000208DF8020025208DF80000684644
:100C9000FFF700FC26208DF800006846FFF7FAFBFE
:100CA00027208DF800006846FFF7F4FB34208DF80C
:100CB00000006846FFF7EEFB35208DF8000068461F
:100CC000FFF7E8FB002409E0064951F8240001225F
:100CD00040F22551FFF733FE601CC4B2052CF3DB54
:100CE00038BD0000BC00002010B5421E114B03EBC4
:100CF000821212783F2A14DA421E03EB82130D4C43
:100D000004EB82121278521C9954421E234603EBC4
:100D100082121278521CD3B2421E04EB821213705C
:100D200010BD4023421E034C04EB8212137000BF1F
:100D3000F6E70000F80000202DE9F04104460F46D8
:100D40001546601E174901EB8010007840BB3F2D0F
:100D500026DA601E01EB80100570002607E0B95D01
:100D6000601E104A02EB8012701C1154C6B2AE42D3
:100D7000F5DB601E0C4951F820004560601E51F8FB
:100D80002000006840F00101601E074A52F8200070
:100D9000016001210846FFF739FB0020BDE8F08122
:100DA0000120FBE738020020D00000200022411E75
:100DB000024B03EB81110A707047000038020020DB
:100DC00002E008C8121F08C1002AFAD17047704714
:100DD000002001E001C1121F002AFBD17047000072
:100DE0004FF44070FFF78EFBFFF72EFBFFF736FF47
:100DF00001210220FFF70AFB04E00422024901203E
:100E0000FFF79AFFF9E70000A00000202C0E000871
:100E100000000020F8000000C00D0008240F0008AA
:100E2000F800002080060000D00D0008000000003F
:100E3000010203040102030406070809020406086C
:100E4000020120100018014000180140000C014070
:100E5000000C0140340C0040380C00403C0C0040B9
:100E6000400C0040400800403C080040380800406A
:100E70003408004034040040380400403C04004082
:100E80004004004034340140383401403C340140D7
:100E9000403401400004004000080040000C0040C5
:100EA0000034014000380140004400400048004048
:100EB000004C004000500040440002400000000090
:100EC0000000000000000000000000006162636498
:100ED00065000000020120100018014000180140C8
:100EE000000C0140000C014000380140004400406B
:100EF00000480040004C00400050004044000240C8
:100F000000000000000000000000000000000000E1
:100F1000020120100018014000180140000C01409F
:040F2000000C014080
:0400000508000131BD
:00000001FF
