:020000040800F2
:1000000010070020450100080504000865030008EA
:1000100001040008B9010008070F000800000000F3
:100020000000000000000000000000004106000881
:10003000BD01000800000000190500082D07000898
:100040005F0100085F0100085F0100085F01000810
:100050005F0100085F0100085F0100085F01000800
:100060005F0100085F0100085F0100085F010008F0
:100070005F0100085F0100085F0100085F010008E0
:100080005F0100085F0100085F0100085F010008D0
:100090005F0100085F0100085F0100085F010008C0
:1000A0005F0100085F0100085F0100085F010008B0
:1000B0005F0100085F0100085F0100085F010008A0
:1000C0005F0100085F0100085F0100085F01000890
:1000D0005F010008B50C0008E50C0008150D0008CC
:1000E0005F0100085F0100085F0100085F01000870
:1000F0005F0100085F0100085F0100085F01000860
:100100005F0100085F0100085F0100085F0100084F
:10011000550C0008850C00085F0100085F0100080D
:100120005F0100085F0100085F0100085F0100082F
:10013000DFF80CD000F02EF800480047C512000888
:10014000100700200648804706480047FEE7FEE704
:10015000FEE7FEE7FEE7FEE7FEE7FEE7FEE7FEE777
:10016000310700083101000830B50B460146002078
:100170002022012409E021FA02F59D4205D303FA69
:1001800002F5491B04FA02F52844151EA2F10102EA
:10019000F1DC30BD064C074D06E0E06840F001039D
:1001A00094E8070098471034AC42F6D3FFF7C4FF39
:1001B0001C1300083C13000800BFFEE770472DE940
:1001C000F0410246002500260020002300240027DD
:1001D00091F803C00CF00F0591F803C00CF0100C5F
:1001E000BCF1000F03D091F802C04CEA050591F86C
:1001F00000C0BCF1000F31D0146800202BE04FF09C
:10020000010C0CFA00F3B1F800C00CEA03069E42A0
:1002100020D183004FF00F0C0CFA03F7BC4305FA12
:1002200003FC4CEA040491F803C0BCF1280F06D18A
:100230004FF0010C0CFA00FCC2F814C00AE091F86F
:1002400003C0BCF1480F05D14FF0010C0CFA00FCC3
:10025000C2F810C0401C0828D1D31460B1F800C007
:10026000BCF1FF0F34DD546800202EE000F1080CD3
:100270004FF0010808FA0CF3B1F800C00CEA0306CD
:100280009E4221D183004FF00F0C0CFA03F7BC43C0
:1002900005FA03FC4CEA040491F803C0BCF1280FF2
:1002A00005D100F1080C08FA0CF8C2F8148091F896
:1002B00003C0BCF1480F07D100F1080C4FF0010852
:1002C00008FA0CF8C2F81080401C0828CED35460FD
:1002D000BDE8F081F0B50A46002300240021002586
:1002E00000F00046B6F1004F02D11D4EF16901E069
:1002F0001B4E7168C0F3034583B200F44016B6F597
:10030000401F08D121F07061154E766826F07066A6
:10031000134F7E6012E000F48016B6F5801F06D100
:10032000032606FA05F4A14341F0706106E0460D8C
:10033000360103FA06F6B14341F0706122B1460D71
:10034000360103FA06F6314300F00046B6F1004FDD
:1003500002D1034EF16101E0014E7160F0BD000079
:100360000000014000BFFEE759B10C4A52F82020BE
:10037000D2680B4B1B5C1A43084B53F82030DA60F1
:100380000AE0064A52F82020D268054B1B5C9A43CB
:10039000024B53F82030DA60704700007C000020E8
:1003A0007800002008B50121082000F0C7F80121DD
:1003B000402000F0C3F810208DF8030003208DF8D2
:1003C0000200ADF8000069460548FFF7F8FE30204E
:1003D000ADF8000069460348FFF7F1FE08BD0000D4
:1003E00000180140000C014010B5002405E0012177
:1003F0002046FFF7B9FF601CC4B2042CF7DB10BD28
:1004000000BFFEE77047000070B5002100230F22F7
:10041000C47804B3154C246804F4E064C4F5E064C3
:10042000210AC1F10403CA40447804FA03F1847834
:100430001440214309010E4C0678A155047804F0BC
:100440001F050124AC4005786D11AD0005F1E025D4
:10045000C5F8004109E0047804F01F050124AC4010
:10046000044D0678761145F8264070BD0CED00E08D
:1004700000E400E080E100E002490143024A11602B
:10048000704700000000FA050CED00E008B50121FE
:10049000042000F053F80121082000F04FF801215A
:1004A000102000F04BF818208DF8030003208DF881
:1004B0000200CF20ADF8000069460A48FFF77FFE32
:1004C00040F2C330ADF8000069460748FFF777FEF9
:1004D0004FF47070ADF8000069460448FFF76FFEF6
:1004E00008BD000000080140000C01400010014060
:1004F00010B5FFF7CBFF00F04BF900F079F900F0F1
:10050000E5F910BD102803DA024A52F820201180C4
:1005100070470000140000207047000029B1064A0F
:10052000D2690243044BDA6104E0034AD269824390
:10053000014BDA61704700000010024029B1064A01
:1005400092690243044B9A6104E0034A9269824330
:10055000014B9A61704700000010024030B5002145
:100560000022002400232D4D6D6805F00C0121B1FF
:10057000042905D0082923D105E0294D056022E092
:10058000274D05601FE0254D6D6805F47012234D61
:100590006D6805F48034022505EB92421CB9214DAB
:1005A000554305600BE01D4D6D6805F400351DB128
:1005B0001C4D5543056002E0194D5543056002E0AE
:1005C000174D056000BF00BF144D6D6805F0F001C8
:1005D0000909154D6B5C0568DD4045600F4D6D6880
:1005E00005F4E061090A104D6B5C4568DD408560EB
:1005F0000A4D6D6805F46051C90A0B4D6B5C456886
:10060000DD40C560054D6D6805F44041890B074D1F
:100610006B5CC568B5FBF3F5056130BD00100240A9
:1006200000127A0000093D000000002010000020A8
:100630000146481E014A02EB8010704790000020DE
:10064000704710B500F002F810BD00000CB5002096
:10065000019000903348006840F4803031490860D0
:1006600000BF3048006800F4003000900198401C42
:100670000190009818B90198B0F5A06FF1D1294800
:10068000006800F4003010B10120009001E000206B
:1006900000900098012843D12348006840F01000E2
:1006A000214908600846006820F0030008600846F9
:1006B000006840F0020008601A4840681949486024
:1006C0000846406848600846406840F480604860DA
:1006D0000846406820F47C1048600846406840F4B2
:1006E000E81048600846006840F08070086000BF6D
:1006F0000C48006800F000700028F9D009484068F4
:1007000020F00300074948600846406840F00200B6
:10071000486000BF0348406800F00C000828F9D189
:100720000CBD000000100240002002407047000095
:1007300010B51348006840F00100114908600846F0
:100740004068104908400E494860084600680E4954
:1007500008400B4908600846006820F480200860C3
:100760000846406820F4FE0048604FF41F0088608F
:10077000FFF767FF4FF000600449086010BD0000FC
:10078000001002400000FFF8FFFFF6FE08ED00E059
:100790003EB501214803FFF7D1FE01210220FFF7FA
:1007A000BDFE01210820FFF7B9FE01210420FFF75B
:1007B000B5FE0020ADF80600ADF8020044F61F605B
:1007C000ADF804004720ADF8000000208DF80800C7
:1007D000002407E0054951F82400694600F0E8F9D3
:1007E000601CC4B2042CF5DB3EBD000054000020A8
:1007F0001FB50020ADF80C006020ADF8000000200F
:10080000ADF80E000820ADF80A000020ADF8080091
:10081000ADF804000120ADF802000020ADF806009C
:10082000002400BF31E01A4951F82400694600F065
:1008300063F8174951F82400694600F0B3F81449E9
:1008400051F82400694600F00DF9114951F82400CF
:10085000694600F061F90E4951F82400082100F0C2
:1008600097F80B4951F82400082100F0EDF80849E9
:1008700051F82400082100F045F9054951F82400F9
:10088000082100F087F9601CC4B2042CCBDB1FBD2B
:100890005400002021B1028842F00102028004E0ED
:1008A00002884FF6FE731A400280704731B1B0F8EB
:1008B000442042F40042A0F8442005E0B0F844206F
:1008C000C2F30E02A0F844207047000010B50121C9
:1008D0000748FFF7EBFF002407E0064951F8240022
:1008E0000121FFF7D7FF601CC4B2042CF5DB10BD5B
:1008F000003401405400002070B500240022002381
:10090000058C4FF6FE7635400584028C8388048B77
:100910004FF68F752C40B51E2C400D882C43751E4C
:100920002A400D892A434D882A43144DA8420BD0F2
:10093000134DA84208D0134DA84205D0124DA8422D
:1009400002D0124DA84213D14FF6F7752A404D89B7
:100950002A434FF6FB752A408D882A434FF6FF65E0
:100960002B404FF6FF552B408D892B43CD892B43D0
:1009700083800483CD888586028470BD002C01406D
:100980000034014000400140004401400048014063
:100990000A460021018B4FF6F7731940114301837A
:1009A0007047000070B5002400220023058C4FF62C
:1009B000EF7635400584028C8388048B48F6FF75FA
:1009C0002C404FF6FF452C400D884FF6FF7606EA87
:1009D00005252C434FF6DF752A400D8906EA0515DB
:1009E0002A434D8806EA05152A43154DA84202D030
:1009F000144DA8421DD14FF67F752A404D894FF600
:100A0000FF7606EA05152A434FF6BF752A408D8802
:100A100006EA05152A434FF6FF352B404FF2FF75C6
:100A20002B408D8906EA85052B43CD8906EA85058D
:100A30002B4383800483CD880587028470BD00002A
:100A4000002C0140003401400A460021018B4FF286
:100A5000FF7319404FF6FF7303EA02231943018322
:100A60007047000070B5002400220023058C4FF66B
:100A7000FF6635400584028C8388848B4FF68F7522
:100A80002C404FF6FC752C400D882C434FF6FF553B
:100A90002A400D894FF6FF7606EA05252A434D8840
:100AA00006EA05252A43154DA84202D0144DA84256
:100AB0001DD14FF2FF752A404D894FF6FF7606EAA9
:100AC00005252A434FF6FF352A408D8806EA05257D
:100AD0002A434EF6FF752B404DF6FF752B408D894E
:100AE00006EA05152B43CD8906EA05152B438380BD
:100AF0008483CD888587028470BD0000002C01406E
:100B0000003401400A460021818B4FF6F7731940EB
:100B1000114381837047000070B500220023002438
:100B2000058C4EF6FF7635400584038C8488828BD5
:100B300048F6FF752A404FF6FF452A400D884FF6CC
:100B4000FF7606EA05252A434DF6FF752B400D89F1
:100B500006EA05352B434D8806EA05352B430B4D38
:100B6000A84202D00A4DA84208D14BF6FF752C408E
:100B70008D894FF6FF7606EA85152C4384808283A3
:100B8000CD88A0F84050038470BD0000002C0140C7
:100B9000003401400A460021818B4FF2FF73194057
:100BA0004FF6FF7303EA0223194381837047000065
:100BB000002202881D4B98420ED01D4B98420BD04C
:100BC000B0F1804F08D01B4B984205D01A4B984289
:100BD00002D01A4B984204D14FF68F731A404B88BB
:100BE0001A43174B984207D0164B984204D04FF641
:100BF000FF431A40CB881A4302808B8883850B8879
:100C000003850A4B98420BD0094B984208D00E4BF3
:100C1000984205D00D4B984202D00D4B984201D11D
:100C20000B7A03860123838270470000002C014069
:100C3000003401400004004000080040000C004067
:100C400000100040001400400040014000440140FA
:100C50000048014010B540F22551094800F08EF8D7
:100C600001280CD1064800F045F9C4B22146042001
:100C700000F026FA40F22551014800F063F810BD5B
:100C8000004C004010B540F22551094800F076F8BC
:100C900001280CD1064800F02DF9C4B221460520E8
:100CA00000F00EFA40F22551014800F04BF810BD5B
:100CB0000050004010B540F22551094800F05EF8A0
:100CC00001280CD1064800F015F9C4B221460120D4
:100CD00000F0F6F940F22551014800F033F810BD5C
:100CE0000038014010B540F22551094800F046F89F
:100CF00001280CD1064800F0FDF8C4B221460220BC
:100D000000F0DEF940F22551014800F01BF810BD5B
:100D10000044004010B540F22551094800F02EF87B
:100D200001280CD1064800F0E5F8C4B221460320A2
:100D300000F0C6F940F22551014800F003F810BD5B
:100D40000048004010B50022002340F66A14A1427A
:100D500000D100BF0A1201249440A3B2DC430480F6
:100D600010BD02460020B1F5007F00D100BF1388FE
:100D70000B400BB1012000E00020704770B5024627
:100D8000002400230025002040F66A16B14200D15D
:100D900000BFC1F3421501F01F03012606FA03F359
:100DA000012D02D19689334006E0022D02D1168A28
:100DB000334001E0968A33400C12012606FA04F40F
:100DC0001688344013B10CB1012000E0002070BD42
:100DD000F0B50346002400260025002040F66A17DF
:100DE000B94200D100BF1846C1F3421401F01F06FA
:100DF000012707FA06F5012C01D10C3004E0022C82
:100E000001D1103000E014301AB107682F43076099
:100E100002E00768AF430760F0BD00002DE9F0472E
:100E200086B005460E460024A24600BFA146002714
:100E3000B08900B100BF2F462C8A4CF6FF700440E9
:100E4000F08804432C82AC894EF6F3100440B0883D
:100E500031890843718908430443AC81AC8A4FF659
:100E6000FF400440B0890443AC8201A8FFF776FB41
:100E70001F48874202D1DDF810A001E0DDF80CA088
:100E8000A88900F4004040B10AEBCA0000EB0A1048
:100E900031684900B0FBF1F807E00AEBCA0000EB4B
:100EA0000A1031688900B0FBF1F86420B8FBF0F05B
:100EB00004012009642101FB1089A88900F4004085
:100EC00040B1322000EBC900B0FBF1F000F00700A8
:100ED000044308E0322000EB09106421B0FBF1F07C
:100EE00000F00F0004432C8106B0BDE8F08700003D
:100EF0000038014001468888C0F308007047C1F3FC
:100F000008028280704700BFFEE700001FB5012184
:100F10008803FFF713FB01214804FFF7FFFA0121C3
:100F2000C804FFF7FBFA01210805FFF707FB4FF4A0
:100F3000E13000900020ADF80C000C20ADF80A0064
:100F40000020ADF80800ADF80600ADF8040000245C
:100F500007E0054951F824006946FFF75FFF601C70
:100F6000C4B2052CF5DB1FBD6400002070470000F3
:100F700008B501210846FFF7E1FA01210820FFF733
:100F8000A9F901210420FFF7D9FA01210820FFF770
:100F9000D5FA01211020FFF7D1FA01212020FFF717
:100FA000CDFA18208DF8030003208DF802004FF4CD
:100FB0000070ADF8000069461B48FFF700F92020DB
:100FC000ADF8000069461948FFF7F9F84FF4806062
:100FD000ADF8000069461648FFF7F1F84FF4A0504D
:100FE000ADF8000069461348FFF7E9F804208DF8D2
:100FF00003000002ADF8000069460B48FFF7DFF878
:101000004420ADF8000069460848FFF7D8F84FF4CF
:101010000060ADF8000069460548FFF7D0F8694662
:101020000448FFF7CCF808BD000801400014014057
:10103000000C01400010014010B5FFF799FFFFF7C9
:1010400065FF00F003F8FFF791FF10BD38B50120F0
:101050008DF803000C208DF8010000208DF80200AF
:1010600025208DF800006846FFF7CEF926208DF880
:1010700000006846FFF7C8F927208DF80000684691
:10108000FFF7C2F934208DF800006846FFF7BCF97D
:1010900035208DF800006846FFF7B6F9002409E016
:1010A000064951F82400012240F22551FFF790FE35
:1010B000601CC4B2052CF3DB38BD000064000020C6
:1010C00010B5421E104B03EB821212783F2A13DA3E
:1010D000421E03EB82130C4C04EB821212789954DB
:1010E000421E234603EB82121278521CD3B2421ED8
:1010F00004EB8212137010BD4023421E024C04EB1D
:101100008212137000BFF6E7900000200FB4054B69
:1011100010B503A9044A029800F018F810BC5DF855
:1011200014FB0000A11200088C00002002E008C897
:10113000121F08C1002AFAD170477047002001E051
:1011400001C1121F002AFBD1704700002DE9FF4F9B
:1011500089B09B460446002506E025280BD05A4658
:101160000B999047641C6D1C20780028F5D10DB0B8
:101170002846BDE8F08F0027B8460122474900E025
:10118000074314F8013F203B02FA03F00842F7D16D
:1011900020782E2819D114F8010F47F004072A28C7
:1011A0000ED06FF02F022078A0F1300109290CD861
:1011B00008EB880102EB410100EB0108641CF2E737
:1011C0000A98641C50F8048B0A9020780028CED02E
:1011D000642808D0692806D075281ED05A460B9975
:1011E00090476D1C58E00A994FF00A0901C90A910D
:1011F000002802DA40422D2102E0390504D52B21D6
:101200008DF82010012103E0F90704D02021F7E731
:101210008A4608AE0DE00021FAE70A994FF00A0964
:1012200001C90A91F7E74946FEF79EFF303106F8FB
:10123000011D0028F7D1ADEB060000F12009780769
:1012400001D44FF00108C84502DDA8EB090000E019
:1012500000208046002706E008A85A46C05D0B998A
:1012600090476D1C7F1C5745F6DB04E030205A4642
:101270000B9990476D1CB8F10001A8F10108F5DC4D
:1012800005E016F8010B5A460B9990476D1CB9F111
:101290000001A9F10109F4DC641C65E709280100DB
:1012A00070B504460D46A1B20548FFF728FE00BF01
:1012B00080210348FFF755FD0028F9D0204670BD76
:1012C000003801404FF44070FFF7D6F8FFF7B4FE46
:1012D000FFF70EF9FFF766F8FFF786F8002406E03F
:1012E0004FF416612046FFF70DF9601CC4B2102CB4
:1012F000F6DB08E00120FFF79BF90478214602A005
:10130000FFF704FF00BFF5E7536275666665725F1D
:101310004C656E3A25640D0A000000003C1300087D
:1013200000000020900000002C110008CC130008E1
:1013300090000020800600003C1100080000000022
:101340000102030401020304060708090204060857
:10135000340C0040380C00403C0C0040400C004075
:10136000400800403C080040380800403408004075
:1013700034040040380400403C0400404004004075
:1013800034340140383401403C34014040340140A1
:101390000004004000080040000C00400034014000
:1013A000003801400044004000480040004C00402C
:1013B00000500040020120100018014000180140B8
:0C13C000000C0140000C01400000000087
:0400000508000131BD
:00000001FF
