:020000040800F2
:10000000F006002045010008A904000821040008AA
:10001000A50400088D010008A70A000800000000E0
:100020000000000000000000000000006906000859
:10003000770200080000000031050008550700089D
:100040005F0100085F0100085F0100085F01000810
:100050005F0100085F0100085F0100085F01000800
:100060005F0100085F0100085F0100085F010008F0
:100070005F0100085F010008910100085F010008AE
:100080005F0100085F0100085F0100085F010008D0
:100090005F0100085F0100085F0100085F010008C0
:1000A0005F0100085F0100085F0100085F010008B0
:1000B0005F0100085F0100085F0100085F010008A0
:1000C0005F0100085F0100085F0100085F01000890
:1000D0005F010008190800084908000879080008AD
:1000E0005F0100085F0100085F0100085F01000870
:1000F0005F0100085F0100085F0100085F01000860
:100100005F0100085F0100085F0100085F0100084F
:10011000B9070008E90700085F0100085F0100084F
:100120005F0100085F0100085F0100085F0100082F
:10013000DFF80CD000F018F8004800472D0E00083A
:10014000F00600200648804706480047FEE7FEE725
:10015000FEE7FEE7FEE7FEE7FEE7FEE7FEE7FEE777
:100160005907000831010008064C074D06E0E06819
:1001700040F0010394E8070098471034AC42F6D3EE
:10018000FFF7DAFF900E0008B00E000800BFFEE790
:1001900010B54FF4005000F031F801280ED100F0F6
:1001A000E9FD0748006800684FF6FE710840044901
:1001B000096808604FF4005000F012F810BD00000C
:1001C0003C00002000F0805111B10349086001E0BB
:1001D00002494860704700000404024000000240E9
:1001E00000F0805111B10349086001E00249486004
:1001F0007047000004040240000002400146002055
:10020000002201F0805313B1054B1A6801E0054B41
:100210001A6802EA01030BB1012000E000207047D8
:1002200000040240000002401AB103680B4303605F
:1002300002E003688B430360704710B50022026838
:1002400047F6F0739A430C6A8B6823430C69234387
:100250004C6923438C692343CC6923434C6A234371
:100260008C6A23431A430260CB6843600B68836047
:100270004B68C36010BD70472DE9F0410246002570
:100280000026002000230024002791F803C00CF072
:100290000F0591F803C00CF0100CBCF1000F03D057
:1002A00091F802C04CEA050591F800C0BCF1000FBE
:1002B00031D0146800202BE04FF0010C0CFA00F351
:1002C000B1F800C00CEA03069E4220D183004FF033
:1002D0000F0C0CFA03F7BC4305FA03FC4CEA0404C8
:1002E00091F803C0BCF1280F06D14FF0010C0CFAB5
:1002F00000FCC2F814C00AE091F803C0BCF1480F3A
:1003000005D14FF0010C0CFA00FCC2F810C0401CE3
:100310000828D1D31460B1F800C0BCF1FF0F34DD60
:10032000546800202EE000F1080C4FF0010808FA94
:100330000CF3B1F800C00CEA03069E4221D1830001
:100340004FF00F0C0CFA03F7BC4305FA03FC4CEA20
:10035000040491F803C0BCF1280F05D100F1080C8A
:1003600008FA0CF8C2F8148091F803C0BCF1480FE9
:1003700007D100F1080C4FF0010808FA0CF8C2F898
:100380001080401C0828CED35460BDE8F0810000E6
:10039000F0B50A46002300240021002500F00046A5
:1003A000B6F1004F02D11D4EF16901E01B4E71689C
:1003B000C0F3034583B200F44016B6F5401F08D1E0
:1003C00021F07061154E766826F07066134F7E60DE
:1003D00012E000F48016B6F5801F06D1032606FA57
:1003E00005F4A14341F0706106E0460D360103FAC1
:1003F00006F6B14341F0706122B1460D360103FAB1
:1004000006F6314300F00046B6F1004F02D1034E2C
:10041000F16101E0014E7160F0BD0000000001409B
:1004200000BFFEE759B10C4A52F82020D2680B4BAE
:100430001B5C1A43084B53F82030DA600AE0064A86
:1004400052F82020D268054B1B5C9A43024B53F8AC
:100450002030DA6070470000540000205000002077
:1004600008B50121082000F085F80121402000F0A6
:1004700081F810208DF8030003208DF80200ADF8FC
:10048000000069460548FFF7F7FE3020ADF8000090
:1004900069460348FFF7F0FE08BD00000018014060
:1004A000000C014000BFFEE77047000070B500215E
:1004B00000230F22C47804B3154C246804F4E064CC
:1004C000C4F5E064210AC1F10403CA40447804FA87
:1004D00003F184781440214309010E4C0678A1559C
:1004E000047804F01F050124AC4005786D11AD00BF
:1004F00005F1E025C5F8004109E0047804F01F0586
:100500000124AC40044D0678761145F8264070BDB4
:100510000CED00E000E400E080E100E0024901436E
:10052000024A1160704700000000FA050CED00E07F
:100530007047000029B1064A52690243044B5A61D0
:1005400004E0034A52698243014B5A61704700003C
:100550000010024029B1064AD2690243044BDA6115
:1005600004E0034AD2698243014BDA61704700001C
:100570000010024029B1064A92690243044B9A6175
:1005800004E0034A92698243014B9A61704700007C
:100590000010024030B500210022002400232D4D20
:1005A0006D6805F00C0121B1042905D0082923D17B
:1005B00005E0294D056022E0274D05601FE0254D2F
:1005C0006D6805F47012234D6D6805F480340225C2
:1005D00005EB92421CB9214D554305600BE01D4DC2
:1005E0006D6805F400351DB11C4D5543056002E0F2
:1005F000194D5543056002E0174D056000BF00BF6F
:10060000144D6D6805F0F0010909154D6B5C056826
:10061000DD4045600F4D6D6805F4E061090A104D3D
:100620006B5C4568DD4085600A4D6D6805F460517E
:10063000C90A0B4D6B5C4568DD40C560054D6D68B2
:1006400005F44041890B074D6B5CC568B5FBF3F5BC
:10065000056130BD0010024000127A0000093D0023
:100660000000002010000020704710B500F002F8D4
:1006700010BD00000CB500200190009033480068C8
:1006800040F480303149086000BF3048006800F411
:10069000003000900198401C0190009818B9019812
:1006A000B0F5A06FF1D12948006800F4003010B116
:1006B0000120009001E0002000900098012843D123
:1006C0002348006840F0100021490860084600688F
:1006D00020F0030008600846006840F0020008604F
:1006E0001A4840681949486008464068486008460A
:1006F000406840F4806048600846406820F47C1000
:1007000048600846406840F4E810486008460068C1
:1007100040F08070086000BF0C48006800F0007076
:100720000028F9D00948406820F0030007494860D4
:100730000846406840F00200486000BF0348406837
:1007400000F00C000828F9D10CBD00000010024098
:10075000002002407047000010B51348006840F0C8
:1007600001001149086008464068104908400E49D8
:100770004860084600680E4908400B490860084672
:10078000006820F4802008600846406820F4FE00DD
:1007900048604FF41F008860FFF767FF4FF000606C
:1007A0000449086010BD0000001002400000FFF87E
:1007B000FFFFF6FE08ED00E010B540F225510948B4
:1007C00000F0ACF801280CD1064800F063F9C4B27F
:1007D0002146042000F0A6FA40F22551014800F01D
:1007E0006CF810BD004C004010B540F2255109488E
:1007F00000F094F801280CD1064800F04BF9C4B27F
:100800002146052000F08EFA40F22551014800F003
:1008100054F810BD0050004010B540F22551094871
:1008200000F07CF801280CD1064800F033F9C4B27E
:100830002146012000F076FA40F22551014800F0EF
:100840003CF810BD0038014010B540F22551094870
:1008500000F064F801280CD1064800F01BF9C4B27E
:100860002146022000F05EFA40F22551014800F0D6
:1008700024F810BD0044004010B540F2255109484D
:1008800000F04CF801280CD1064800F003F9C4B27E
:100890002146032000F046FA40F22551014800F0BD
:1008A0000CF810BD0048004001F40072B2F5007F62
:1008B00000D100BFCA430280704710B50022002358
:1008C00040F66A14A14200D100BF0A1201249440EC
:1008D000A3B2DC43048010BD21B1828942F40052EE
:1008E000828104E082894DF6FF731A40828170474D
:1008F0001AB1838A0B43838202E0838A8B4383820B
:10090000704702460020B1F5007F00D100BF138878
:100910000B400BB1012000E00020704770B502468B
:10092000002400230025002040F66A16B14200D1C1
:1009300000BFC1F3421501F01F03012606FA03F3BD
:10094000012D02D19689334006E0022D02D1168A8C
:10095000334001E0968A33400C12012606FA04F473
:100960001688344013B10CB1012000E0002070BDA6
:10097000F0B50346002400260025002040F66A1743
:10098000B94200D100BF1846C1F3421401F01F065E
:10099000012707FA06F5012C01D10C3004E0022CE6
:1009A00001D1103000E014301AB107682F430760FE
:1009B00002E00768AF430760F0BD00002DE9F04793
:1009C00086B005460E460024A24600BFA146002779
:1009D000B08900B100BF2F462C8A4CF6FF7004404E
:1009E000F08804432C82AC894EF6F3100440B088A2
:1009F00031890843718908430443AC81AC8A4FF6BE
:100A0000FF400440B0890443AC8201A8FFF7C2FD57
:100A10001F48874202D1DDF810A001E0DDF80CA0EC
:100A2000A88900F4004040B10AEBCA0000EB0A10AC
:100A300031684900B0FBF1F807E00AEBCA0000EBAF
:100A40000A1031688900B0FBF1F86420B8FBF0F0BF
:100A500004012009642101FB1089A88900F40040E9
:100A600040B1322000EBC900B0FBF1F000F007000C
:100A7000044308E0322000EB09106421B0FBF1F0E0
:100A800000F00F0004432C8106B0BDE8F0870000A1
:100A90000038014001468888C0F308007047C1F360
:100AA00008028280704700BFFEE700001FB50121E9
:100AB0008803FFF75FFD01214804FFF74BFD01218B
:100AC000C804FFF747FD01210805FFF753FD4FF468
:100AD000E13000900020ADF80C000C20ADF80A00C9
:100AE0000020ADF80800ADF80600ADF804000024C1
:100AF0000DE0084951F824006946FFF75FFF0549FA
:100B000051F824002021FFF7CFFE601CC4B2052C51
:100B1000EFDB1FBD2800002000B58DB00121084685
:100B2000FFF708FD01210220FFF704FD00200590DA
:100B30001020049000200C90099080200790002045
:100B40000A90089006904FF480500B901548029040
:100B50001548039002A91548FFF76FFB01220221F7
:100B60001248FFF761FB0E208DF8040001208DF87C
:100B700007000A208DF8050000208DF8060001A866
:100B8000FFF794FC4FF40050FFF71CFB012280217B
:100B90000448001FFFF7ACFE00200349491E0870FF
:100BA0000DB000BD04380140B101002044000240F6
:100BB00010B5002407E0054951F824000121FFF792
:100BC0008BFE601CC4B2052CF5DB10BD2800002094
:100BD00008B501210846FFF7CDFC01210820FFF7E9
:100BE000D7FB01210420FFF7C5FC01210820FFF7F6
:100BF000C1FC01211020FFF7BDFC01212020FFF7DF
:100C0000B9FC18208DF8030003208DF802004FF482
:100C10000070ADF8000069461B48FFF72DFB20204F
:100C2000ADF8000069461948FFF726FB4FF48060D5
:100C3000ADF8000069461648FFF71EFB4FF4A050C0
:100C4000ADF8000069461348FFF716FB04208DF845
:100C500003000002ADF8000069460B48FFF70CFBEB
:100C60004420ADF8000069460848FFF705FB4FF443
:100C70000060ADF8000069460548FFF7FDFA6946D7
:100C80000448FFF7F9FA08BD0008014000140140CC
:100C9000000C01400010014010B5FFF799FFFFF76D
:100CA00005FF00F005F8FFF737FFFFF781FF10BDE4
:100CB00038B501208DF803000C208DF801000020CC
:100CC0008DF8020025208DF800006846FFF7EEFB46
:100CD00026208DF800006846FFF7E8FB27208DF8F6
:100CE00000006846FFF7E2FB34208DF800006846FC
:100CF000FFF7DCFB35208DF800006846FFF7D6FBD8
:100D0000002409E0064951F82400012240F225514F
:100D1000FFF72EFE601CC4B2052CF3DB38BD0000CB
:100D20002800002010B5421E114B03EB82121278EE
:100D30003F2A14DA421E03EB82130D4C04EB82129D
:100D40001278521C9954421E234603EB82121278E9
:100D5000521CD3B2421E04EB8212137010BD40230A
:100D6000421E034C04EB8212137000BFF6E7000032
:100D7000700000200022411E024B03EB81110A701B
:100D800070470000B0010020012902DA014A42F850
:100D90002100704764000020014A024900F013B8A6
:100DA000090E00086C00002002E008C8121F08C1EC
:100DB000002AFAD170477047002001E001C1121FDC
:100DC000002AFBD170472DE9F04116460F46044634
:100DD000002503E03946B047641C6D1C20780028CC
:100DE000F8D12846BDE8F0810021002200BF07E0CD
:100DF0000B2201E0531E9AB2002AFBD14B1C99B280
:100E00008142F5DB7047000070B504460D46A1B283
:100E10000548FFF744FE00BF80210348FFF771FD3E
:100E20000028F9D0204670BD003801404FF44070D2
:100E3000FFF774FBFFF714FBFFF72EFF01210220E1
:100E4000FFF7F0FA00210E48FFF79EFF16E00DA015
:100E5000FFF7A2FF4FF47A70FFF7C6FF4FF47A70E6
:100E6000FFF7C2FF4FF47A70FFF7BEFF4FF47A70BE
:100E7000FFF7BAFF4FF47A70FFF7B6FFE7E700001D
:100E800000004041E4BDA0E5A5BD0D0A0000000042
:100E9000B00E00080000002070000000A80D00083F
:100EA000200F00087000002080060000B80D000828
:100EB0000000000001020304010203040607080900
:100EC0000204060802012010001801400018014029
:100ED000000C0140000C014000380140004400407B
:100EE00000480040004C00400050004044000240D8
:100EF00000000000000000000000000000000000F2
:100F0000020120100018014000180140000C0140AF
:100F1000000C0140000000000000807F0000000085
:0400000508000131BD
:00000001FF
