:020000040800F2
:1000000098060020450100082D0500088904000815
:10001000290500088D010008771000080000000085
:100020000000000000000000000000009907000828
:10003000DB020008000000006106000885080008D7
:100040005F0100085F0100085F0100085F01000810
:100050005F0100085F0100085F0100085F01000800
:100060005F0100085F0100085F0100085F010008F0
:10007000910100085F010008C10100085F0100084C
:100080005F010008F50100085F0100085F0100083A
:100090005F0100085F0100085F0100085F010008C0
:1000A0005F0100085F0100085F0100085F010008B0
:1000B0005F0100085F0100085F0100085F010008A0
:1000C0005F0100085F0100085F0100085F01000890
:1000D0005F0100080D0E00083D0E00086D0E0008BF
:1000E0005F0100085F0100085F0100085F01000870
:1000F0005F0100085F0100085F0100085F01000860
:100100005F0100085F0100085F0100085F0100084F
:10011000AD0D0008DD0D00085F0100085F0100085B
:100120005F0100085F0100085F0100085F0100082F
:10013000DFF80CD000F018F8004800471D14000844
:10014000980600200648804706480047FEE7FEE77D
:10015000FEE7FEE7FEE7FEE7FEE7FEE7FEE7FEE777
:100160008908000831010008064C074D06E0E068E8
:1001700040F0010394E8070098471034AC42F6D3EE
:10018000FFF7DAFF481400086814000800BFFEE714
:1001900010B5202000F064F801280ED1032001F0F2
:1001A00023F90648806800684FF6FE71084003494D
:1001B00089680860202000F045F810BD7800002014
:1001C00010B54FF4005000F04BF801280ED101F0AB
:1001D0000BF90748006800684FF6FE7108400449B3
:1001E000096808604FF4005000F02CF810BD0000C2
:1001F0007800002010B54FF0007000F031F80128B1
:100200000FD1022001F0F0F80648406800684FF670
:10021000FE7108400349496808604FF0007000F023
:1002200011F810BD7800002000F0805111B1034991
:10023000086001E002494860704700000404024081
:100240000000024000F0805111B10349086001E054
:100250000249486070470000040402400000024068
:1002600001460020002201F0805313B1054B1A68AB
:1002700001E0054B1A6802EA01030BB1012000E01E
:100280000020704700040240000002401AB10368D9
:100290000B43036002E003688B430360704710B5B3
:1002A0000022026847F6F0739A430C6A8B68234376
:1002B0000C6923434C6923438C692343CC69234352
:1002C0004C6A23438C6A23431A430260CB68436021
:1002D0000B6883604B68C36010BD70472DE9F04127
:1002E000024600250026002000230024002791F864
:1002F00003C00CF00F0591F803C00CF0100CBCF11A
:10030000000F03D091F802C04CEA050591F800C037
:10031000BCF1000F31D0146800202BE04FF0010C2D
:100320000CFA00F3B1F800C00CEA03069E4220D19B
:1003300083004FF00F0C0CFA03F7BC4305FA03FCE3
:100340004CEA040491F803C0BCF1280F06D14FF029
:10035000010C0CFA00FCC2F814C00AE091F803C0CA
:10036000BCF1480F05D14FF0010C0CFA00FCC2F8AB
:1003700010C0401C0828D1D31460B1F800C0BCF1F3
:10038000FF0F34DD546800202EE000F1080C4FF020
:10039000010808FA0CF3B1F800C00CEA03069E420B
:1003A00021D183004FF00F0C0CFA03F7BC4305FA80
:1003B00003FC4CEA040491F803C0BCF1280F05D1FA
:1003C00000F1080C08FA0CF8C2F8148091F803C088
:1003D000BCF1480F07D100F1080C4FF0010808FAF2
:1003E0000CF8C2F81080401C0828CED35460BDE839
:1003F000F0810000F0B50A4600230024002100250A
:1004000000F00046B6F1004F02D11D4EF16901E047
:100410001B4E7168C0F3034583B200F44016B6F575
:10042000401F08D121F07061154E766826F0706685
:10043000134F7E6012E000F48016B6F5801F06D1DF
:10044000032606FA05F4A14341F0706106E0460D6B
:10045000360103FA06F6B14341F0706122B1460D50
:10046000360103FA06F6314300F00046B6F1004FBC
:1004700002D1034EF16101E0014E7160F0BD000058
:10048000000001400161704700BFFEE738B501215F
:10049000082000F007F90121202000F003F92820AE
:1004A0008DF80300002416E00C48005DADF8000054
:1004B0000B4951F824006946FFF710FF084850F82F
:1004C0002400C0680549095D8843054951F8241096
:1004D000C860601CC4B2042CE6DB38BD9400002068
:1004E0008400002008B50121082000F0DBF801217C
:1004F000402000F0D7F810208DF8030003208DF87D
:100500000200ADF8000069460548FFF7E7FE30201D
:10051000ADF8000069460348FFF7E0FE08BD0000A3
:1005200000180140000C014000BFFEE770470000CA
:1005300070B5002100230F22C47804B3154C246841
:1005400004F4E064C4F5E064210AC1F10403CA4084
:10055000447804FA03F184781440214309010E4CD5
:100560000678A155047804F01F050124AC400578F5
:100570006D11AD0005F1E025C5F8004109E00478F2
:1005800004F01F050124AC40044D0678761145F8AF
:10059000264070BD0CED00E000E400E080E100E0EA
:1005A00002490143024A1160704700000000FA0549
:1005B0000CED00E008B50121402000F073F8102098
:1005C0008DF8030003208DF802006C20ADF80000C8
:1005D00069460448FFF782FE6C210248FFF752FF8C
:1005E00008BD00000018014008B50121042000F0FA
:1005F00059F80121082000F055F80121102000F0E1
:1006000051F818208DF8030003208DF80200CF2048
:10061000ADF8000069460A48FFF760FE40F2C330BB
:10062000ADF8000069460748FFF758FE4FF47070B8
:10063000ADF8000069460448FFF750FE08BD000011
:1006400000080140000C01400010014010B5FFF708
:10065000CBFF00F049F900F077F900F0E3F910BDA5
:100660007047000029B1064A52690243044B5A619F
:1006700004E0034A52698243014B5A61704700000B
:100680000010024029B1064AD2690243044BDA61E4
:1006900004E0034AD2698243014BDA6170470000EB
:1006A0000010024029B1064A92690243044B9A6144
:1006B00004E0034A92698243014B9A61704700004B
:1006C0000010024030B500210022002400232D4DEF
:1006D0006D6805F00C0121B1042905D0082923D14A
:1006E00005E0294D056022E0274D05601FE0254DFE
:1006F0006D6805F47012234D6D6805F48034022591
:1007000005EB92421CB9214D554305600BE01D4D90
:100710006D6805F400351DB11C4D5543056002E0C0
:10072000194D5543056002E0174D056000BF00BF3D
:10073000144D6D6805F0F0010909154D6B5C0568F5
:10074000DD4045600F4D6D6805F4E061090A104D0C
:100750006B5C4568DD4085600A4D6D6805F460514D
:10076000C90A0B4D6B5C4568DD40C560054D6D6881
:1007700005F44041890B074D6B5CC568B5FBF3F58B
:10078000056130BD0010024000127A0000093D00F2
:100790000000002010000020704710B500F002F8A3
:1007A00010BD00000CB50020019000903348006897
:1007B00040F480303149086000BF3048006800F4E0
:1007C000003000900198401C0190009818B90198E1
:1007D000B0F5A06FF1D12948006800F4003010B1E5
:1007E0000120009001E0002000900098012843D1F2
:1007F0002348006840F0100021490860084600685E
:1008000020F0030008600846006840F0020008601D
:100810001A484068194948600846406848600846D8
:10082000406840F4806048600846406820F47C10CE
:1008300048600846406840F4E81048600846006890
:1008400040F08070086000BF0C48006800F0007045
:100850000028F9D00948406820F0030007494860A3
:100860000846406840F00200486000BF0348406806
:1008700000F00C000828F9D10CBD00000010024067
:10088000002002407047000010B51348006840F097
:1008900001001149086008464068104908400E49A7
:1008A0004860084600680E4908400B490860084641
:1008B000006820F4802008600846406820F4FE00AC
:1008C00048604FF41F008860FFF767FF4FF000603B
:1008D0000449086010BD0000001002400000FFF84D
:1008E000FFFFF6FE08ED00E03EB501214803FFF7EB
:1008F000D9FE01210220FFF7C5FE01210820FFF7E4
:10090000C1FE01210420FFF7BDFE0020ADF8060066
:10091000ADF8020044F61F60ADF804004720ADF8C2
:10092000000000208DF80800002407E0054951F878
:100930002400694600F0E8F9601CC4B2042CF5DB21
:100940003EBD0000540000201FB50020ADF80C0093
:100950006020ADF800000020ADF80E000820ADF8D2
:100960000A000020ADF80800ADF804000120ADF841
:1009700002000020ADF80600002400BF31E01A4953
:1009800051F82400694600F063F8174951F8240033
:10099000694600F0B3F8144951F82400694600F0A4
:1009A0000DF9114951F82400694600F061F90E492A
:1009B00051F82400082100F097F80B4951F8240061
:1009C000082100F0EDF8084951F82400082100F052
:1009D00045F9054951F82400082100F087F9601C09
:1009E000C4B2042CCBDB1FBD5400002021B102880F
:1009F00042F00102028004E002884FF6FE731A40C2
:100A00000280704731B1B0F8442042F40042A0F8AF
:100A1000442005E0B0F84420C2F30E02A0F84420C0
:100A20007047000010B501210748FFF7EBFF0024D5
:100A300007E0064951F824000121FFF7D7FF601CA9
:100A4000C4B2042CF5DB10BD00340140540000207A
:100A500070B5002400220023058C4FF6FE76354049
:100A60000584028C8388048B4FF68F752C40B51E4D
:100A70002C400D882C43751E2A400D892A434D8831
:100A80002A43144DA8420BD0134DA84208D0134D51
:100A9000A84205D0124DA84202D0124DA84213D14F
:100AA0004FF6F7752A404D892A434FF6FB752A40C9
:100AB0008D882A434FF6FF652B404FF6FF552B409C
:100AC0008D892B43CD892B4383800483CD888586F4
:100AD000028470BD002C0140003401400040014000
:100AE00000440140004801400A460021018B4FF6B6
:100AF000F7731940114301837047000070B500245B
:100B000000220023058C4FF6EF7635400584028CD9
:100B10008388048B48F6FF752C404FF6FF452C4028
:100B20000D884FF6FF7606EA05252C434FF6DF7554
:100B30002A400D8906EA05152A434D8806EA05155F
:100B40002A43154DA84202D0144DA8421DD14FF69C
:100B50007F752A404D894FF6FF7606EA05152A4330
:100B60004FF6BF752A408D8806EA05152A434FF6D1
:100B7000FF352B404FF2FF752B408D8906EA850526
:100B80002B43CD8906EA85052B4383800483CD88DA
:100B90000587028470BD0000002C01400034014034
:100BA0000A460021018B4FF2FF7319404FF6FF7385
:100BB00003EA0223194301837047000070B5002443
:100BC00000220023058C4FF6FF6635400584028C19
:100BD0008388848B4FF68F752C404FF6FC752C4024
:100BE0000D882C434FF6FF552A400D894FF6FF76AE
:100BF00006EA05252A434D8806EA05252A43154DB0
:100C0000A84202D0144DA8421DD14FF2FF752A40D0
:100C10004D894FF6FF7606EA05252A434FF6FF3544
:100C20002A408D8806EA05252A434EF6FF752B409B
:100C30004DF6FF752B408D8906EA05152B43CD89AE
:100C400006EA05152B4383808483CD88858702843B
:100C500070BD0000002C0140003401400A46002114
:100C6000818B4FF6F7731940114381837047000061
:100C700070B5002200230024058C4EF6FF76354027
:100C80000584038C8488828B48F6FF752A404FF6D2
:100C9000FF452A400D884FF6FF7606EA05252A43D0
:100CA0004DF6FF752B400D8906EA05352B434D881F
:100CB00006EA05352B430B4DA84202D00A4DA84247
:100CC00008D14BF6FF752C408D894FF6FF7606EA6A
:100CD00085152C4384808283CD88A0F840500384FE
:100CE00070BD0000002C0140003401400A46002184
:100CF000818B4FF2FF7319404FF6FF7303EA022313
:100D00001943818370470000002202881D4B9842DE
:100D10000ED01D4B98420BD0B0F1804F08D01B4B2A
:100D2000984205D01A4B984202D01A4B984204D1EF
:100D30004FF68F731A404B881A43174B984207D0CF
:100D4000164B984204D04FF6FF431A40CB881A4303
:100D500002808B8883850B8803850A4B98420BD0D1
:100D6000094B984208D00E4B984205D00D4B984243
:100D700002D00D4B984201D10B7A03860123838266
:100D800070470000002C0140003401400004004086
:100D900000080040000C004000100040001400401B
:100DA00000400140004401400048014010B540F2BD
:100DB0002551094800F09FF801280CD1064800F0A1
:100DC00055F9C4B22146042000F0E6FA40F225515C
:100DD000014800F06CF810BD004C004010B540F226
:100DE0002551094800F087F801280CD1064800F089
:100DF0003DF9C4B22146052000F0CEFA40F225515B
:100E0000014800F054F810BD0050004010B540F209
:100E10002551094800F06FF801280CD1064800F070
:100E200025F9C4B22146012000F0B6FA40F225515E
:100E3000014800F03CF810BD0038014010B540F208
:100E40002551094800F057F801280CD1064800F058
:100E50000DF9C4B22146022000F09EFA40F225515D
:100E6000014800F024F810BD0044004010B540F2E5
:100E70002551094800F03FF801280CD1064800F040
:100E8000F5F8C4B22146032000F086FA40F225515D
:100E9000014800F00CF810BD0048004001F4007259
:100EA000B2F5007F00D100BFCA430280704710B581
:100EB0000022002340F66A14A14200D100BF0A12AA
:100EC00001249440A3B2DC43048010BD21B1828987
:100ED00042F40052828104E082894DF6FF731A4089
:100EE000828170471AB1838A0B43838202E0838A2E
:100EF0008B438382704770B502460024002300258F
:100F0000002040F66A16B14200D100BFC1F342157D
:100F100001F01F03012606FA03F3012D02D1968981
:100F2000334006E0022D02D1168A334001E0968A52
:100F300033400C12012606FA04F41688344013B12B
:100F40000CB1012000E0002070BDF0B50346002484
:100F500000260025002040F66A17B94200D100BFE4
:100F60001846C1F3421401F01F06012707FA06F5DF
:100F7000012C01D10C3004E0022C01D1103000E032
:100F800014301AB107682F43076002E00768AF43C7
:100F90000760F0BD2DE9F04786B005460E460024F7
:100FA000A24600BFA1460027B08900B100BF2F466E
:100FB0002C8A4CF6FF700440F08804432C82AC89E4
:100FC0004EF6F3100440B088318908437189084314
:100FD0000443AC81AC8A4FF6FF400440B08904431F
:100FE000AC8201A8FFF76EFB1F48874202D1DDF8F3
:100FF00010A001E0DDF80CA0A88900F4004040B189
:101000000AEBCA0000EB0A1031684900B0FBF1F8A6
:1010100007E00AEBCA0000EB0A1031688900B0FB58
:10102000F1F86420B8FBF0F004012009642101FB11
:101030001089A88900F4004040B1322000EBC900BB
:10104000B0FBF1F000F00700044308E0322000EBB1
:1010500009106421B0FBF1F000F00F0004432C8173
:1010600006B0BDE8F08700000038014001468888DE
:10107000C0F30800704700BFFEE700001FB5012164
:101080008803FFF70FFB01214804FFF7FBFA01215A
:10109000C804FFF7F7FA01210805FFF703FB4FF437
:1010A000E13000900020ADF80C000C20ADF80A00F3
:1010B0000020ADF80800ADF80600ADF804000024EB
:1010C0000DE0084951F824006946FFF763FF054920
:1010D00051F824002021FFF7E1FE601CC4B2052C6A
:1010E000EFDB1FBD6400002010B58CB00121084665
:1010F000FFF7B8FA01210220FFF7B4FA00200490AC
:101100001020039000200B90089080200690002073
:101110000990079005904FF480500A903A4801904A
:101120003A48029001A93A48FFF7B9F839480190C6
:1011300036484030029001A935483C30FFF7AFF8FF
:101140003548019031488030029001A93048283854
:10115000FFF7A5F8002408E0304951F824000122E7
:101160000221FFF793F8601CC4B2032CF4DB0E20BD
:101170008DF8000001208DF8030006208DF8010095
:1011800000208DF802006846FFF7D2F911208DF893
:10119000000001208DF803000A208DF801000020D6
:1011A0008DF802006846FFF7C3F90C208DF80000A7
:1011B00001208DF803000A208DF8010000208DF831
:1011C00002006846FFF7B4F94FF40050FFF72CF81F
:1011D0004FF00070FFF728F82020FFF725F80024D3
:1011E0000EE00F4951F8240001228021FFF77AFE1A
:1011F00000200649491E01EB84110870601CC4B22E
:10120000032CEEDB0CB010BD04380140D9010020E6
:10121000440002400444004004480040780000209C
:101220006400002010B5002407E0054951F82400AF
:101230000121FFF74BFE601CC4B2052CF5DB10BD8D
:101240006400002008B501210846FFF72BFA0121B0
:101250000820FFF7CFF801210420FFF723FA01212E
:101260000820FFF71FFA01211020FFF71BFA0121C8
:101270002020FFF717FA18208DF8030003208DF8BF
:1012800002004FF40070ADF8000069461B48FFF7FC
:1012900025F82020ADF8000069461948FFF71EF830
:1012A0004FF48060ADF8000069461648FFF716F865
:1012B0004FF4A050ADF8000069461348FFF70EF850
:1012C00004208DF803000002ADF8000069460B48C9
:1012D000FFF704F84420ADF8000069460848FEF71F
:1012E000FDFF4FF40060ADF8000069460548FEF7C9
:1012F000F5FF69460448FEF7F1FF08BD000801400C
:1013000000140140000C01400010014010B5FFF72F
:1013100099FFFFF7B3FE00F005F8FFF7E5FEFFF7D2
:1013200081FF10BD38B501208DF803000C208DF829
:10133000010000208DF8020025208DF8000068468D
:10134000FFF7F6F826208DF800006846FFF7F0F862
:1013500027208DF800006846FFF7EAF834208DF862
:1013600000006846FFF7E4F835208DF80000684675
:10137000FFF7DEF8002409E0064951F824000122B5
:1013800040F22551FFF7E1FD601CC4B2052CF3DBF0
:1013900038BD00006400002010B5421E114B03EB65
:1013A000821212783F2A14DA421E03EB82130D4C8C
:1013B00004EB82121278521C9954421E234603EB0E
:1013C00082121278521CD3B2421E04EB82121370A6
:1013D00010BD4023421E034C04EB8212137000BF69
:1013E000F6E70000980000200022411E024B03EBAC
:1013F00081110A7070470000D801002002E008C87F
:10140000121F08C1002AFAD170477047002001E07E
:1014100001C1121F002AFBD1704700004FF4407039
:10142000FFF7BEF8FFF75EF8FFF7C4F8FFF72EF8F6
:10143000FFF70CF9FFF76AFF10210248FFF722F8C7
:1014400000BFFEE7001801406814000800000020FB
:1014500098000000FC130008001500089800002008
:10146000000600000C140008000000000102030444
:10147000010203040607080902040608340C0040B0
:10148000380C00403C0C0040400C0040400800403C
:101490003C08004038080040340800403404004054
:1014A000380400403C040040400400403434014013
:1014B000383401403C3401404034014000040040D5
:1014C00000080040000C004000340140003801409A
:1014D0000044004000480040004C004000500040E4
:1014E00044000240800002401C000240000C014009
:1014F000001401400014014000140140088010084D
:0400000508000131BD
:00000001FF
